:100000000C9434000C9452000C9452000C94520046
:100010000C9452000C9452000C9452000C94520018
:100020000C9452000C9452000C9452000C94520008
:100030000C9452000C9452000C9452000C945200F8
:100040000C9452000C9452000C9452000C945200E8
:100050000C9452000C9452000C9452000C945200D8
:100060000C9452000C94520011241FBECFEFD8E024
:10007000DEBFCDBF0E9440000C943E00F894FFCF3D
:100080008FEF84B980E00BC085B92FEF33ED90E39B
:10009000215030409040E1F700C000008F5F8F3F5B
:0400A00099F7F0CF0D
:0400A4000C940000B8
:00000001FF
